{
  "contractName": "Election",
  "abi": [
    {
      "constant": true,
      "inputs": [],
      "name": "driversCount",
      "outputs": [
        {
          "name": "",
          "type": "uint256"
        }
      ],
      "payable": false,
      "stateMutability": "view",
      "type": "function"
    },
    {
      "constant": true,
      "inputs": [],
      "name": "Driver1",
      "outputs": [
        {
          "name": "",
          "type": "string"
        }
      ],
      "payable": false,
      "stateMutability": "view",
      "type": "function"
    },
    {
      "constant": true,
      "inputs": [
        {
          "name": "",
          "type": "uint256"
        }
      ],
      "name": "drivers",
      "outputs": [
        {
          "name": "id",
          "type": "uint256"
        },
        {
          "name": "name",
          "type": "string"
        },
        {
          "name": "lat",
          "type": "uint256"
        },
        {
          "name": "long",
          "type": "uint256"
        }
      ],
      "payable": false,
      "stateMutability": "view",
      "type": "function"
    },
    {
      "inputs": [],
      "payable": false,
      "stateMutability": "nonpayable",
      "type": "constructor"
    },
    {
      "anonymous": false,
      "inputs": [
        {
          "indexed": true,
          "name": "_DriverId",
          "type": "uint256"
        }
      ],
      "name": "votedEvent",
      "type": "event"
    },
    {
      "constant": false,
      "inputs": [
        {
          "name": "_DriverId",
          "type": "uint256"
        },
        {
          "name": "lat",
          "type": "uint256"
        },
        {
          "name": "long",
          "type": "uint256"
        }
      ],
      "name": "vote",
      "outputs": [],
      "payable": false,
      "stateMutability": "nonpayable",
      "type": "function"
    }
  ],
  "bytecode": "0x608060405234801561001057600080fd5b506040518060400160405280600781526020017f417765736f6d65000000000000000000000000000000000000000000000000008152506000908051906020019061005c929190610287565b506100a16040518060400160405280600881526020017f44726976657220310000000000000000000000000000000000000000000000008152506101fa60201b60201c565b6100e56040518060400160405280600881526020017f44726976657220320000000000000000000000000000000000000000000000008152506101fa60201b60201c565b6101296040518060400160405280600881526020017f44726976657220330000000000000000000000000000000000000000000000008152506101fa60201b60201c565b61016d6040518060400160405280600881526020017f44726976657220340000000000000000000000000000000000000000000000008152506101fa60201b60201c565b6101b16040518060400160405280600881526020017f44726976657220350000000000000000000000000000000000000000000000008152506101fa60201b60201c565b6101f56040518060400160405280600881526020017f44726976657220360000000000000000000000000000000000000000000000008152506101fa60201b60201c565b6103ac565b6002600081548092919060010191905055506040518060800160405280600254815260200182815260200160008152602001600081525060016000600254815260200190815260200160002060008201518160000155602082015181600101908051906020019061026c929190610307565b50604082015181600201556060820151816003015590505050565b828054600181600116156101000203166002900490600052602060002090601f016020900481019282601f106102c857805160ff19168380011785556102f6565b828001600101855582156102f6579182015b828111156102f55782518255916020019190600101906102da565b5b5090506103039190610387565b5090565b828054600181600116156101000203166002900490600052602060002090601f016020900481019282601f1061034857805160ff1916838001178555610376565b82800160010185558215610376579182015b8281111561037557825182559160200191906001019061035a565b5b5090506103839190610387565b5090565b6103a991905b808211156103a557600081600090555060010161038d565b5090565b90565b61040b806103bb6000396000f3fe608060405234801561001057600080fd5b506004361061004c5760003560e01c80638a6655d614610051578063bd8d1e8214610093578063e5ee4eb5146100b1578063f79e545014610134575b600080fd5b6100916004803603606081101561006757600080fd5b810190808035906020019092919080359060200190929190803590602001909291905050506101f0565b005b61009b610273565b6040518082815260200191505060405180910390f35b6100b9610279565b6040518080602001828103825283818151815260200191508051906020019080838360005b838110156100f95780820151818401526020810190506100de565b50505050905090810190601f1680156101265780820380516001836020036101000a031916815260200191505b509250505060405180910390f35b6101606004803603602081101561014a57600080fd5b8101908080359060200190929190505050610317565b6040518085815260200180602001848152602001838152602001828103825285818151815260200191508051906020019080838360005b838110156101b2578082015181840152602081019050610197565b50505050905090810190601f1680156101df5780820380516001836020036101000a031916815260200191505b509550505050505060405180910390f35b60008311801561020257506002548311155b61020b57600080fd5b816001600085815260200190815260200160002060020181905550806001600085815260200190815260200160002060030181905550827ffff3c900d938d21d0990d786e819f29b8d05c1ef587b462b939609625b684b1660405160405180910390a2505050565b60025481565b60008054600181600116156101000203166002900480601f01602080910402602001604051908101604052809291908181526020018280546001816001161561010002031660029004801561030f5780601f106102e45761010080835404028352916020019161030f565b820191906000526020600020905b8154815290600101906020018083116102f257829003601f168201915b505050505081565b6001602052806000526040600020600091509050806000015490806001018054600181600116156101000203166002900480601f0160208091040260200160405190810160405280929190818152602001828054600181600116156101000203166002900480156103c95780601f1061039e576101008083540402835291602001916103c9565b820191906000526020600020905b8154815290600101906020018083116103ac57829003601f168201915b505050505090806002015490806003015490508456fea165627a7a723058200e1250c0fdb73140a4b918a082d351c86a62e3ccdc4f185e983de226a005a7ee0029",
  "source": "pragma solidity 0.5.8;\n\ncontract Election {\n    // Model a Driver\n    string public Driver1;\n\n    struct Driver {\n        uint id;\n        string name;\n        uint lat;\n        uint long; //ufixed long\n    }\n\n    // Store accounts that have voted\n    // mapping(address => bool) public voters;\n    // Store drivers\n    // Fetch Driver\n    mapping(uint => Driver) public drivers;\n    // Store drivers Count\n    uint public driversCount;\n\n    // voted event\n    event votedEvent (\n        uint indexed _DriverId\n    );\n\n    constructor() public\n    {\n        Driver1 = \"Awesome\";\n        addDriver(\"Driver 1\");\n        addDriver(\"Driver 2\");\n        addDriver(\"Driver 3\");\n        addDriver(\"Driver 4\");\n        addDriver(\"Driver 5\");\n        addDriver(\"Driver 6\");\n    }\n\n    function addDriver (string memory _name) private {\n        driversCount ++;\n        drivers[driversCount] = Driver(driversCount, _name, 0, 0);\n    }\n\n    function vote (uint _DriverId, uint lat, uint long) public {\n        // require that they haven't voted before\n        // require(!voters[msg.sender]);\n\n        // require a valid Driver\n        require(_DriverId > 0 && _DriverId <= driversCount);\n\n        // record that voter has voted\n        // voters[msg.sender] = true;\n\n        // update Driver vote Count\n        drivers[_DriverId].lat = lat;\n        drivers[_DriverId].long = long;\n\n        // trigger voted event\n        emit votedEvent(_DriverId);\n    }\n}\n",
  "sourcePath": "C:/Users/Keshav/Desktop/7th Sem Project/Smart Code/contracts/Election.sol",
  "compiler": {
    "name": "solc",
    "version": "0.5.8+commit.23d335f2.Emscripten.clang"
  },
  "schemaVersion": "3.0.10",
  "updatedAt": "2019-07-21T13:40:50.433Z",
  "devdoc": {
    "methods": {}
  },
  "userdoc": {
    "methods": {}
  }
}